:020000040800F2
:1000000000000220154900082D2600082F260008B0
:1000100031260008332600083526000800000000BD
:10002000000000000000000000000000372600086B
:1000300039260008000000003B2600083D26000885
:1000400065490008654900086549000865490008D8
:1000500065490008654900086549000865490008C8
:1000600065490008654900086549000865490008B8
:1000700065490008654900086549000865490008A8
:100080006549000865490008654900086549000898
:100090006549000865490008654900086549000888
:1000A0006549000865490008654900086549000878
:1000B0006549000865490008654900086549000868
:1000C0006549000865490008654900086549000858
:1000D0006549000865490008654900086549000848
:1000E0006549000865490008654900086549000838
:1000F0006549000865490008654900086549000828
:100100006549000865490008654900086549000817
:100110006549000865490008654900086549000807
:1001200065490008654900086549000865490008F7
:100130006549000800000000000000006549000853
:1001400065490008654900086549000865490008D7
:1001500065490008654900086549000865490008C7
:1001600065490008654900086549000865490008B7
:10017000654900086549000865490008000000005D
:1001800000000000654900080000000000000000B9
:1001900065490008000000000000000065490008F3
:1001A0000000000000000000000000006549000899
:1001B0006549000865490008654900086549000867
:0401C0006549000885
:1002000002780B78012A28BF9A4240F0D8806DE925
:10021000044540EA0104CDE902676FF0000C4FEAA3
:1002200044721AB380EA010414F0070F6BD100F096
:10023000070420F0070004F0030521F007014FEA4E
:10024000C505F0E8042314F0040FF1E804670CFA84
:1002500005F462EA040266EA04060BD063EA0403CA
:10026000624667EA0407664604E000BFF0E804233C
:10027000F1E8046782FA4CF582EA0604A4FA8CF4E9
:100280006CBB83FA4CF583EA0705A5FA8CF595B9A2
:1002900050E9022351E9026782FA4CF582EA06042A
:1002A000A4FA8CF483FA4CF583EA0705A5FA8CF5D9
:1002B0002543DBD09CB92DBAB5FA85F424F00704A8
:1002C00027FA04F1DDE9026723FA04F303F0FF00E3
:1002D00001F0FF01FDE80445A0EB0100704724BADE
:1002E000B4FA84F424F0070426FA04F1DDE9026785
:1002F00022FA04F202F0FF0001F0FF01FDE80445DC
:10030000A0EB0100704714F0030F3CD110F0030480
:1003100028D150F8082B51F8083B82FA4CF582EAB4
:100320000305A5FA8CF55DB950F8042C51F8043C8E
:1003300082FA4CF582EA0305A5FA8CF5002DE8D087
:100340002DBAB5FA85F424F0070423FA04F122FA51
:1003500004F202F0FF0001F0FF01FDE80445A0EB0C
:10036000010070474FEAC40420F0030050F8082B46
:1003700021F0030151F8083B0CFA04F462EA04028C
:1003800063EA0403C9E710F003041DD0A1EB0401E4
:1003900020F00300E40750F8042B06D012D28B782B
:1003A0005FFAA2F4E41A06D12BB1CB785FFAB2F46B
:1003B000E41A00D133B920465DF8104B7047A2EB28
:1003C0000300704701F1040150F8042BCC0721F021
:1003D000030151F8043B48D824D222F07F4482FA2A
:1003E0004CF594EA1325A5FA8CF50AD165B951F8B4
:1003F000043B84EA0204B4EB036F0ED150F8042BE3
:10040000EBE74FEA132355E035F07F454DD10878EF
:10041000FDE80445C0F1000070474FEA126203F0A6
:10042000FF0347E002EA1C4482FA4CF594EA1345C4
:10043000A5FA8CF50AD165B951F8043B84EA0204A7
:10044000B4EB034F0CD150F8042BEBE74FEA134306
:1004500030E015EA1C4528D10B884FEA124229E00A
:100460004FEA124203EA1C4324E002F0FF0482FA3E
:100470004CF594EA1365A5FA8CF50AD165B951F8E3
:10048000043B84EA0204B4EB032F09D150F8042B97
:10049000EBE74FEA13630DE015F0FF0F05D10B6892
:1004A0004FEA122223F07F4304E04FF00000FDE802
:1004B0000445704712BA1BBA82FA4CF482EA03046C
:1004C000A4FA8CF5B5FA85F402FA04F203FA04F3FF
:1004D0004FEA1260FDE80445A0EB1360704700BFCF
:1004E00001F0FF01102A2BDB10F0070F08D010F8E5
:1004F000013B013A8B422DD010F0070F42B3F6D1E9
:10050000F0B441EA012141EA014122F007047FF001
:1005100000070023F0E80256083C85EA010586EA58
:10052000010685FA47F5A3FA87F586FA47F6A5FA94
:1005300087F68EB9EED1F0BC01F0FF0102F00702A0
:1005400032B110F8013B013A83EA010313B1F8D14B
:100550000020704701387047002D06BF354603382C
:10056000073815F0010F07D1013015F4807F02BF65
:10057000013015F4C03F0130F0BC0138704700BFB6
:10058000844641EA000313F003036DD1403A41D39E
:1005900051F8043B40F8043B51F8043B40F8043B5D
:1005A00051F8043B40F8043B51F8043B40F8043B4D
:1005B00051F8043B40F8043B51F8043B40F8043B3D
:1005C00051F8043B40F8043B51F8043B40F8043B2D
:1005D00051F8043B40F8043B51F8043B40F8043B1D
:1005E00051F8043B40F8043B51F8043B40F8043B0D
:1005F00051F8043B40F8043B51F8043B40F8043BFD
:1006000051F8043B40F8043B51F8043B40F8043BEC
:10061000403ABDD2303211D351F8043B40F8043B8C
:1006200051F8043B40F8043B51F8043B40F8043BCC
:1006300051F8043B40F8043B103AEDD20C3205D39C
:1006400051F8043B40F8043B043AF9D2043208D094
:10065000D2071CBF11F8013B00F8013B01D30B8806
:1006600003806046704700BF082A13D38B078DD0E4
:1006700010F003038AD0C3F10403D21ADB071CBFB6
:1006800011F8013B00F8013B80D331F8023B20F820
:10069000023B7BE7043AD9D3013A11F8013B00F859
:1006A000013BF9D20B7803704B7843708B788370E1
:1006B00060467047000000000000000000000000DD
:1006C00030B490F800F020F007016FF0000C10F04B
:1006D000070491F820F040F048804FF000046FF0DC
:1006E0000700D1E9002391F840F000F1080082FAF8
:1006F0004CF2A4FA8CF283FA4CF3A2FA8CF34BBBC3
:10070000D1E9022382FA4CF200F10800A4FA8CF23B
:1007100083FA4CF3A2FA8CF3E3B9D1E9042382FA09
:100720004CF200F10800A4FA8CF283FA4CF3A2FA1E
:100730008CF37BB9D1E9062301F1200182FA4CF256
:1007400000F10800A4FA8CF283FA4CF3A2FA8CF3BD
:10075000002BC6D0002A04BF04301A4612BAB2FADF
:1007600082F200EBD20030BC7047D1E9002304F0E4
:100770000305C4F100004FEAC50514F0040F91F819
:1007800040F00CFA05F562EA05021CBF63EA0503B6
:1007900062464FF00004AAE781F0004102E000BF8A
:1007A00083F0004330B54FEA41044FEA430594EA31
:1007B000050F08BF90EA020F1FBF54EA000C55EA6C
:1007C000020C7FEA645C7FEA655C00F0E2804FEA3D
:1007D0005454D4EB5555B8BF6D420CDD2C4480EA1F
:1007E000020281EA030382EA000083EA010180EA4F
:1007F000020281EA0303362D88BF30BD11F0004F9D
:100800004FEA01314FF4801C4CEA113102D04042D2
:1008100061EB410113F0004F4FEA03334CEA13330D
:1008200002D0524263EB430394EA050F00F0A78025
:10083000A4F10104D5F1200E0DDB02FA0EFC22FA20
:1008400005F2801841F1000103FA0EF2801843FA14
:1008500005F359410EE0A5F120050EF1200E012A05
:1008600003FA0EFC28BF4CF0020C43FA05F3C01843
:1008700051EBE37101F0004507D54FF0000EDCF1BC
:10088000000C7EEB00006EEB0101B1F5801F1BD365
:10089000B1F5001F0CD349085FEA30004FEA3C0C69
:1008A00004F101044FEA445212F5800F80F09A805F
:1008B000BCF1004F08BF5FEA500C50F1000041EB63
:1008C000045141EA050130BD5FEA4C0C404141EB67
:1008D0000101013C28BFB1F5801FE9D291F0000F62
:1008E00004BF01460020B1FA81F308BF2033A3F111
:1008F0000B03B3F120020CDA0C3208DD02F1140C08
:10090000C2F10C0201FA0CF021FA02F10CE002F142
:100910001402D8BFC2F1200C01FA02F120FA0CFC3B
:10092000DCBF41EA0C019040E41AA2BF01EB045184
:10093000294330BD6FEA04041F3C1CDA0C340EDC82
:1009400004F11404C4F1200220FA04F001FA02F3C5
:1009500040EA030021FA04F345EA030130BDC4F183
:100960000C04C4F1200220FA02F001FA04F340EA78
:100970000300294630BD21FA04F0294630BD94F029
:10098000000F83F4801306BF81F480110134013D10
:100990004EE77FEA645C18BF7FEA655C29D094EA81
:1009A000050F08BF90EA020F05D054EA000C04BFFF
:1009B0001946104630BD91EA030F1EBF00210020EA
:1009C00030BD5FEA545C05D14000494128BF41F089
:1009D000004130BD14F580043CBF01F5801130BDED
:1009E00001F0004545F0FE4141F470014FF0000078
:1009F00030BD7FEA645C1ABF194610467FEA655C29
:100A00001CBF0B46024650EA013406BF52EA0335CA
:100A100091EA030F41F4002130BD00BF90F0000FB8
:100A200004BF0021704730B54FF4806404F13204F4
:100A30004FF000054FF0000150E700BF90F0000FAD
:100A400004BF0021704730B54FF4806404F13204D4
:100A500010F0004548BF40424FF000013EE700BFA4
:100A600042004FEAE2014FEA31014FEA02701FBF34
:100A700012F07F4393F07F4F81F06051704732F066
:100A80007F4208BF704793F07F4F04BF41F40021BD
:100A9000704730B54FF4607401F0004521F000411B
:100AA0001CE700BF50EA010208BF704730B54FF0A5
:100AB00000050AE050EA010208BF704730B511F0A6
:100AC000004502D5404261EB41014FF4806404F1DE
:100AD00032045FEA915C3FF4D8AE4FF003025FEA64
:100AE000DC0C18BF03325FEADC0C18BF033202EBE8
:100AF000DC02C2F1200300FA03FC20FA02F001FA42
:100B000003FE40EA0E0021FA02F11444BDE600BFE4
:100B100070B54FF0FF0C4CF4E06C1CEA11541DBF93
:100B20001CEA135594EA0C0F95EA0C0F00F0DEF85E
:100B30002C4481EA030621EA4C5123EA4C5350EA43
:100B4000013518BF52EA033541F4801143F4801394
:100B500038D0A0FB02CE4FF00005E1FB02E506F025
:100B60000042E0FB03E54FF00006E1FB03569CF07A
:100B7000000F18BF4EF0010EA4F1FF04B6F5007F80
:100B800064F5407404D25FEA4E0E6D4146EB0606F2
:100B900042EAC62141EA55514FEAC52040EA5E507B
:100BA0004FEACE2EB4F1FD0C88BFBCF5E06F1ED825
:100BB000BEF1004F08BF5FEA500E50F1000041EB5C
:100BC000045170BD06F0004646EA010140EA020009
:100BD00081EA0301B4EB5C04C2BFD4EB0C0541EA2B
:100BE000045170BD41F480114FF0000E013C00F340
:100BF000AB8014F1360FDEBF002001F0004170BD64
:100C0000C4F10004203C35DA0C341BDC04F114047C
:100C1000C4F1200500FA05F320FA04F001FA05F208
:100C200040EA020001F0004221F0004110EBD370D5
:100C300021FA04F642EB06015EEA430E08BF20EA01
:100C4000D37070BDC4F10C04C4F1200500FA04F3A4
:100C500020FA05F001FA04F240EA020001F0004136
:100C600010EBD37041F100015EEA430E08BF20EAA9
:100C7000D37070BDC4F1200500FA05F24EEA020EF1
:100C800020FA04F301FA05F243EA020321FA04F020
:100C900001F0004121FA04F220EA020000EBD370D7
:100CA0005EEA430E08BF20EAD37070BD94F0000FD7
:100CB0000FD101F00046400041EB010111F4801F0B
:100CC00008BF013CF7D041EA060195F0000F18BFBC
:100CD000704703F00046520043EB030313F4801FF8
:100CE00008BF013DF7D043EA0603704794EA0C0FB2
:100CF0000CEA135518BF95EA0C0F0CD050EA4106C8
:100D000018BF52EA4306D1D181EA030101F0004144
:100D10004FF0000070BD50EA410606BF104619466C
:100D200052EA430619D094EA0C0F02D150EA013678
:100D300013D195EA0C0F05D152EA03361CBF1046B9
:100D400019460AD181EA030101F0004141F0FE4158
:100D500041F470014FF0000070BD41F0FE4141F4DC
:100D6000780170BD70B54FF0FF0C4CF4E06C1CEADC
:100D700011541DBF1CEA135594EA0C0F95EA0C0F91
:100D800000F0A7F8A4EB050481EA030E52EA03354C
:100D90004FEA013100F088804FEA03334FF080556D
:100DA00045EA131343EA12634FEA022245EA11159A
:100DB00045EA10654FEA00260EF000419D4208BF4B
:100DC000964244F1FD0404F5407402D25B084FEAF8
:100DD0003202B61A65EB03055B084FEA32024FF4A4
:100DE00080104FF4002CB6EB020E75EB030E22BF01
:100DF000B61A754640EA0C005B084FEA3202B6EBC1
:100E0000020E75EB030E22BFB61A754640EA5C006F
:100E10005B084FEA3202B6EB020E75EB030E22BFFF
:100E2000B61A754640EA9C005B084FEA3202B6EB00
:100E3000020E75EB030E22BFB61A754640EADC00BF
:100E400055EA060E18D04FEA051545EA16754FEA21
:100E500006164FEAC30343EA52734FEAC2025FEA3F
:100E60001C1CC0D111F4801F0BD141EA00014FF0CE
:100E700000004FF0004CB6E711F4801F04BF01439F
:100E80000020B4F1FD0C88BFBCF5E06F3FF6AFAEBB
:100E9000B5EB030C04BFB6EB020C5FEA500C50F14B
:100EA000000041EB045170BD0EF0004E4EEA1131CE
:100EB00014EB5C04C2BFD4EB0C0541EA045170BDD5
:100EC00041F480114FF0000E013C90E645EA060E19
:100ED0008DE60CEA135594EA0C0F08BF95EA0C0F47
:100EE0003FF43BAF94EA0C0F0AD150EA01347FF48F
:100EF00034AF95EA0C0F7FF425AF104619462CE766
:100F000095EA0C0F06D152EA03353FF4FDAE1046C8
:100F1000194622E750EA410618BF52EA43067FF419
:100F2000C5AE50EA41047FF40DAF52EA43057FF4A9
:100F3000EBAE12E74FF0FF3C06E000BF4FF0010CB4
:100F400002E000BF4FF0010C4DF804CD4FEA410C18
:100F50007FEA6C5C4FEA430C18BF7FEA6C5C1BD0E5
:100F600001B050EA410C0CBF52EA430C91EA030F66
:100F700002BF90EA020F0020704710F1000F91EAC3
:100F8000030F58BF994208BF90422CBFD8176FEA91
:100F9000E37040F0010070474FEA410C7FEA6C5C5F
:100FA00002D150EA013C07D14FEA430C7FEA6C5C66
:100FB000D6D152EA033CD3D05DF8040B704700BF92
:100FC0008446104662468C461946634600E000BFE0
:100FD00001B5FFF7B7FF002848BF10F1000F01BDB2
:100FE0004DF808EDFFF7F4FF0CBF012000205DF87D
:100FF00008FB00BF4DF808EDFFF7EAFF34BF012002
:1010000000205DF808FB00BF4DF808EDFFF7E0FF9A
:1010100094BF012000205DF808FB00BF4DF808EDEB
:10102000FFF7CEFF94BF012000205DF808FB00BF52
:101030004DF808EDFFF7C4FF34BF012000205DF834
:1010400008FB00BF4FEA410C7FEA6C5C02D150EA1A
:10105000013C0AD14FEA430C7FEA6C5C02D152EAB0
:10106000033C02D14FF0000070474FF00100704781
:101070004FEA410212F5001215D211D56FF47873C0
:10108000B3EB625212D94FEAC12343F0004343EA63
:10109000505311F0004F23FA02F018BF404270473E
:1010A0004FF00000704750EA013005D111F00040C8
:1010B00008BF6FF0004070474FF00000704700BF5E
:1010C0004FEA4102B2F1E04324BFB3F5001CDCF16A
:1010D000FE5C0DD901F0004C4FEAC0024CEA5070A2
:1010E000B2F1004F40EB830008BF20F001007047D1
:1010F00011F0804F21D113F13872BCBF01F00040D4
:10110000704741F480114FEA5252C2F11802C2F105
:10111000200C10FA0CF320FA02F018BF40F0010086
:101120004FEAC1234FEAD32303FA0CFC40EA0C0038
:1011300023FA02F34FEA4303CCE77FEA625307D175
:1011400050EA01331EBF4FF0FE4040F440007047AC
:1011500001F0004040F0FE4040F40000704700BF46
:1011600053B94AB9002908BF00281CBF4FF0FF310E
:101170004FF0FF3000F0E2B8ADF1080C6DE904CE9D
:101180000FF036FCDDF804E0DDE9022304B070471F
:1011900000F1340191E838009C46A6464CF8045D05
:1011A00090E8FF0FE54600BD90EC210B704700BFB3
:1011B00080EC210B704700BF90EC200B704700BF04
:1011C00080EC200B704700BFD0EC200B704700BFB5
:1011D000C0EC200B704700BFF0EC0201F0EC0211F4
:1011E000F0EC0221F0EC0231F0EC0241F0EC0251A3
:1011F000F0EC0261F0EC0271F0EC0281F0EC029193
:10120000F0EC02A1F0EC02B1F0EC02C1F0EC02D182
:10121000F0EC02E1F0EC02F1704700BFE0EC0201FB
:10122000E0EC0211E0EC0221E0EC0231E0EC0241E2
:10123000E0EC0251E0EC0261E0EC0271E0EC0281D2
:10124000E0EC0291E0EC02A1E0EC02B1E0EC02C1C2
:10125000E0EC02D1E0EC02E1E0EC02F1704700BF0B
:10126000B0FC0181B0FC0191B0FC01A1B0FC01B166
:10127000704700BFA0FC0181A0FC0191A0FC01A16E
:10128000A0FC01B1704700BFEC4600B52DE900504D
:101290002DE9FF1F4FF000032DE90C0001A90FF00D
:1012A00032FEDDF840E012B0704700BFEC4600B5FA
:1012B0002DE900502DE9FF1F4FF000032DE90C0030
:1012C00001A90FF057FEDDF840E012B0704700BFF3
:1012D000EC4600B52DE900502DE9FF1F4FF000034B
:1012E0002DE90C0001A90FF065FEDDF840E012B019
:1012F000704700BFEC4600B52DE900502DE9FF1FF7
:101300004FF000032DE90C0001AB0FF029FEDDF8D2
:1013100040E012B0704700BFEC4600B52DE9005028
:101320002DE9FF1F4FF000032DE90C0001AA0FF07B
:101330009AFEDDF840E012B0704700BF704700BF72
:1013400010B5054C237833B9044B13B10448AFF3FF
:1013500000800123237010BDCC0600200000000097
:101360000019010808B5034B1BB103490348AFF34B
:10137000008008BD00000000D00600200019010810
:1013800030B5204A01251570002151709170D1703F
:10139000022010714FF0FD0E82F805E091714FF0C0
:1013A000030C82F807C01072174C2070617084F82B
:1013B00002C0E1702571617184F806E0E17120726C
:1013C000124B187083F801E0997083F803C018710C
:1013D00059719971D9711D720D4DAC4607CAACE8AF
:1013E00003008CF8002003CCC5F80900C5F80D10E7
:1013F00022786A7403CBC5F81200C5F816101B7862
:10140000AB7630BD1C070020100700200407002029
:10141000E806002009680160126842601B6883606A
:101420000023C3600361009B1B68436170472DE983
:10143000F04782B08146884617461E46DDF828A050
:1014400000240DE0202003F0CDFF0546CDF800A0DC
:1014500033463A464146FFF7DDFF49F82450013450
:10146000052CEFDD02B0BDE8F087000010B586B0B6
:101470000446094B0293094B039300230493084B42
:10148000059305AB009304AB03AA02A9FFF7CFFFB6
:10149000204606B010BD00BF0000E040CDCCCC3DE2
:1014A000CDCCCC3C38B50546002400E00134052CF9
:1014B00007DC55F824000028F8D0202103F053FA67
:1014C000F4E7284638BD91ED007AD2ED007A77EE48
:1014D000677A87EE875A90ED047A37EEC77AD0EDB7
:1014E000056AC7EE265A90ED000A20EE270AD0EDD5
:1014F000016A90ED036A26EE867A30EE070A90EDD7
:10150000027A27EE257A30EE070AF5EEC06AF1EE90
:1015100010FA0BDD90ED077AB4EEC57AF1EE10FA11
:1015200004DD36EE276A80ED036A01E00023C36024
:10153000C0ED047A7047000082B0F8B506460F4649
:1015400006A981E80C00002412E0A5000CAB03EB17
:10155000840206AB03EB840157F82400FFF7B3FFC6
:101560009FED077AC0EE077A3544C5ED007A013465
:10157000052CEADD3046BDE8F84002B0704700BFF8
:1015800000007F4308B5FFF7FBFE08BD30B5204AD9
:1015900001251570002151709170D17002201071D9
:1015A0004FF0FD0E82F805E091714FF0030C82F8C8
:1015B00007C01072174C2070617084F802C0E1708F
:1015C0002571617184F806E0E1712072124B187088
:1015D00083F801E0997083F803C01871597199710B
:1015E000D9711D720D4DAC4607CAACE803008CF8EA
:1015F000002003CCC5F80900C5F80D1022786A74E4
:1016000003CBC5F81200C5F816101B78AB7630BDB9
:101610005C07002050070020440700202807002016
:1016200084B070B5064605A880E80E00002402E0EC
:1016300046F824500134052C15DC182003F0D2FEA6
:10164000054604AB03EB440304AA02EB84019B8E22
:10165000CA69496800F008FEEAE71821284603F045
:1016600082F903F0A3FABDE8704004B070470000AF
:1016700070B59CB0064616AC184D0FCD0FC495E85A
:10168000030084E803000DF1400C154C0FCCACE8CE
:101690000F0094E803008CE80300124A0DAB07CA60
:1016A00083E8070009AC84E807000DF10C0C0DF18C
:1016B000400EBEE80F00ACE80F009EE803008CE887
:1016C00003001CAB13E907008DE8070016AB0ECB37
:1016D0003046FFF7A5FF1CB070BD00BF34190108EC
:1016E0004C1901086419010810B50446FFF7C0FF42
:1016F000204610BD70B506460D46002406E005EBF9
:10170000840156F8240000F0D7FD0134052CF6DDE5
:1017100070BD08B5FFF73AFF08BD000030B5204A9C
:1017200001251570002151709170D1700220107147
:101730004FF0FD0E82F805E091714FF0030C82F836
:1017400007C01072174C2070617084F802C0E170FD
:101750002571617184F806E0E1712072124B1870F6
:1017600083F801E0997083F803C018715971997179
:10177000D9711D720D4DAC4607CAACE803008CF858
:10178000002003CCC5F80900C5F80D1022786A7452
:1017900003CBC5F81200C5F816101B78AB7630BD28
:1017A0009C07002090070020840700206807002085
:1017B000F0B583B007460E4602A901E90C000024EB
:1017C00002E047F824500134052C12DC102003F00D
:1017D00009FE054604F108036B4413F8082C314652
:1017E00000F0A2FDEDE71021284603F0BCF803F05D
:1017F000DDF903B0F0BD000000B583B084468E462D
:10180000074B93E803000090ADF8041002AB13E916
:101810000C0071466046FFF7CBFF03B05DF804FB98
:101820001819010870B505460E46002408E056F860
:10183000240000F089FD05EB840383ED000A0134E8
:10184000052CF4DD284670BD10B50446FFF7D4FF23
:10185000204610BD08B5FFF761FF08BD30B5204A2E
:1018600001251570002151709170D1700220107106
:101870004FF0FD0E82F805E091714FF0030C82F8F5
:1018800007C01072174C2070617084F802C0E170BC
:101890002571617184F806E0E1712072124B1870B5
:1018A00083F801E0997083F803C018715971997138
:1018B000D9711D720D4DAC4607CAACE803008CF817
:1018C000002003CCC5F80900C5F80D1022786A7411
:1018D00003CBC5F81200C5F816101B78AB7630BDE7
:1018E000DC070020D0070020C4070020A807002044
:1018F00010B54CB2E31C062B22D8DFE803F0140F1E
:10190000190404090C0007EE904AB8EEE70A10BD6E
:1019100007F0F8FFFBE708F02DF8F8E707F0F2FF13
:10192000B1EE400AF3E708F025F8B1EE400AEEE721
:10193000042003F075F804600022034903F0ECFC76
:101940009FED020AE3E700BF5C25010800000000EC
:1019500010B50446012003F045FD2060204610BD6F
:1019600010B50446006810B1012102F0FCFF2046CA
:1019700010BD00002DE9F041BCB080460F468DED52
:10198000010ACDED020A8DED031A002615E006EBE3
:10199000C6042C443CAB03EB860313ED3B0A244BFB
:1019A000195D3846FFF7A4FF3CAB03EB840404ED5C
:1019B0001B0A0135082DEADD0136022E01DC002567
:1019C000F8E700240CE004EBC40321AA02EB830334
:1019D0000322114605A800EBC40000F07FFE01348D
:1019E000022C0EDC012CEEDC04EBC4030BAA02EB90
:1019F0008303032211461DA800EBC40000F06EFE15
:101A0000E1E71DAA07A905A800F06CFE1FAA09A915
:101A10001DA800F067FE444614AD0FCD0FC40FCDD6
:101A20000FC42B68236040463CB0BDE8F08100BF86
:101A3000A807002000B587B08DED010ACDED020AA0
:101A40008DED031A0023059305AA032101A800F0D8
:101A500001FF9DED050A07F033FF07B05DF804FBB9
:101A600082B02DE9F04198B0074688461EA981E86A
:101A70000C002C4B0122032114A800F02FFE1EABFA
:101A80000322114616A800F029FE002442E004EBD0
:101A90004403254E06EB8306244D05EB830511AB6D
:101AA0000122032109A800F019FE33460122032177
:101AB00001A800F013FE2B460122032103A800F029
:101AC0000DFE0BAB0122032105A800F007FE0EABB3
:101AD0000122032107A800F001FE05AA01A916A80A
:101AE00000F000FE07AA03A905A800F071FE09AAEC
:101AF00007A914A800F0B0FD9DED110ADDED120A52
:101B00009DED131A4046FFF795FF07EB840383ED25
:101B1000000A0134052CBADD384618B0BDE8F041A2
:101B200002B07047701901087C190108C419010836
:101B300070B596B004460D468DED090ACDED0A0A42
:101B40008DED0B1A0DAE3046FFF714FFEC460DF18C
:101B50003C0EBEE80F00ACE80F009EE807008CE8E2
:101B6000070096E80C0029462046FFF779FF20463B
:101B700016B070BD10B584B004468DED010ACDEDF0
:101B8000020A8DED031A0968FFF7D2FF204604B060
:101B900010BD08B5FFF762FE08BD000030B5204A51
:101BA00001251570002151709170D17002201071C3
:101BB0004FF0FD0E82F805E091714FF0030C82F8B2
:101BC00007C01072174C2070617084F802C0E17079
:101BD0002571617184F806E0E1712072124B187072
:101BE00083F801E0997083F803C0187159719971F5
:101BF000D9711D720D4DAC4607CAACE803008CF8D4
:101C0000002003CCC5F80900C5F80D1022786A74CD
:101C100003CBC5F81200C5F816101B78AB7630BDA3
:101C200044090020380900202C0900201009002058
:101C3000F0B58BB000240594069407940894099499
:101C40000194394B1A6B42F004021A631A6B02F0CA
:101C500004020192019A02941A6B42F080021A6304
:101C60001A6B02F080020292029A03941A6B42F0FD
:101C700001021A631A6B02F001020392039A0494A0
:101C80001A6B42F002021A631B6B03F00203049307
:101C9000049B264E22463F21304600F0CDFF244DC6
:101CA00022462021284600F0C7FF4FF40053059339
:101CB0004FF404130693079405A9304600F0CCFEB8
:101CC0000C23059302230693079403230893072309
:101CD000099305A9284600F0BFFE3F23059311276D
:101CE00006970794089405A9304600F0B5FE2246F1
:101CF0004FF40261284600F09FFF20230593012343
:101D000006930794089405A9284600F0A5FE4FF411
:101D10000063059306970794089405A9284600F0E8
:101D20009BFE0BB0F0BD00BF00380240000802402F
:101D30000000024072B6FEE708B50A480A4B03608D
:101D40004FF4E133436000238360C36003610C22DE
:101D500042618361C36102F041FD00B908BDFFF734
:101D6000E9FF00BF780800200044004010B596B09D
:101D700000241294139414941594109411940994BB
:101D80000A940B940C940D940E940F9420222146E7
:101D900001A809F09FFE3648364B03606423436078
:101DA00084604EF66023C36004614461846102F084
:101DB00065F900284AD14FF48053129312A92C4898
:101DC00002F0C2FA002843D1294802F0AFF90028F6
:101DD00040D100231093119310A9254802F0C4FBB1
:101DE000002839D16023099300220A920B920C92A9
:101DF0000D920E920F9209A91D4802F02AFA68BBB3
:101E0000042209A91A4802F024FA48BB082209A9A9
:101E1000174802F01EFA28BB0C2209A9144802F048
:101E200018FA08BB002301930293039304930593CC
:101E30004FF400520692089301A90D4802F0DAFB14
:101E4000A0B90B4800F06EFB16B010BDFFF772FF93
:101E5000FFF770FFFFF76EFFFFF76CFFFFF76AFFFA
:101E6000FFF768FFFFF766FFFFF764FFFFF762FF0A
:101E7000300800200000014010B596B000241294F4
:101E80001394149415941094119409940A940B9437
:101E90000C940D940E940F942022214601A809F071
:101EA00019FE3C483C4B03604FF4FA734360846076
:101EB0004EF66023C36004614461846102F0DEF881
:101EC000002852D14FF48053129312A9314802F0E6
:101ED0003BFA00284BD12F4802F028F9002848D1BE
:101EE0002C4802F0F7F8002845D1002310931193F5
:101EF00010A9284802F038FB00283ED1602309933E
:101F000000220A920B920C920D920E920F9209A946
:101F1000204802F09EF9002831D1002309930422C1
:101F200009A91C4802F066F958BB082209A91948FA
:101F300002F060F938BB0C2209A9164802F05AF9E0
:101F400018BB0023019302930393049305934FF46A
:101F500000520692089301A90E4802F04BFBB0B95B
:101F60000C4800F0DFFA16B010BDFFF7E3FEFFF7F4
:101F7000E1FEFFF7DFFEFFF7DDFEFFF7DBFEFFF719
:101F8000D9FEFFF7D7FEFFF7D5FEFFF7D3FEFFF729
:101F9000D1FE00BFE80700200004014008B50A4850
:101FA0000A4B03600A4B436000238360C3604FF415
:101FB0008042026143618361C361036201F062F8A0
:101FC00000B908BDFFF7B6FEBC0800200054004071
:101FD000A086010000B595B03422002107A809F0C1
:101FE00079FD0023029303930493059306930093D2
:101FF0001F4A116C41F080511164126C02F0805242
:102000000092009A01931B490A6822F4404242F46C
:1020100080420A600A6802F440420192019A022258
:10202000079201210A9110210B910D920E930F91AD
:102030004FF4A8731093042311931292139207A8DC
:1020400001F0CCFC80B90F230293022103910023FD
:1020500004934FF480520592069302A801F020FBEE
:1020600020B915B05DF804FBFFF764FEFFF762FED0
:10207000003802400070004008B513780A1A00D1F9
:1020800008BD194609F026FDFAE70000F0B5ADF5E8
:10209000417DBEA8FFF75CFC9FED661A8DEDBB1A73
:1020A0008DEDBC1A8DEDBD1A634AB8AB07CA83E843
:1020B0000700B0EE410AF0EE410ABEA9B2A8FFF750
:1020C00059FD9DEDB80ADDEDB90A9DEDBA1ABEA91C
:1020D000ACA8FFF74FFDA6A8FFF7C8F9A0A8FFF727
:1020E00003FB56499AA8FFF7AFFB00F00BFCFFF784
:1020F00071FFFFF79DFDFFF71FFEFFF737FEFFF7AC
:10210000BBFEFFF74BFF00214D4802F0ABF994AC4A
:10211000B2AD0FCD0FC495E8030084E8030000279B
:1021200000F016FCC21B47F230539A420CDD454BBF
:102130001B78012B0DD0022B12D0C3B9424AAC92AE
:102140000133404A137007469AA90AA8FFF76AFBB1
:102150000FE03E4AAC9201333A4A13700746F3E768
:102160003B4BAC93374B00221A700746ECE707460F
:10217000EAE794AC0AAD0FCD0FC495E8030084E8FC
:10218000030004AC94AD0FCD0FC495E8030084E8C0
:102190000300AEAB0FCB8DE80F00ACAB0CCBA6A908
:1021A00011A8FFF7C9F911A9A0A8FFF7A3FA28E021
:1021B00017A8FEF785FA0546C0AB03EB840353F876
:1021C000B00CFEF74DFC02460B46224917A82844E6
:1021D00009F0B2FA06440134E4B2052CE8D917AC90
:1021E0002046FEF76DFA22181B4B19889B78215266
:1021F0009370B21C642392B22146184802F01DFB72
:1022000002E000242646E8E700238DF8FF320DF2B5
:10221000FF2294A92046FFF72FFF192000F09EFB14
:102220007EE7A6A8FFF73EF9BEA8FFF799FB02F0EC
:10223000BDFCF9E70000000020190108BC080020DF
:1022400030080020E50700200000D8410000884148
:102250000000B0410C1A0108141A01087808002087
:1022600008B5FFF79BFC08BD00B54EF6602EA0F840
:1022700000E0426003810023C360002303744161D6
:102280005DF804FB90ED037A038807EE903AF8EED0
:10229000E77A67EE877A4269FCEEE77A17EE903AC2
:1022A0009BB21360704708B5027C0189406800F05A
:1022B000C3FC08BD0000000010B52DED028B0446E4
:1022C000D1ED008AB0EEE88A18EE100AFEF7C8FBDE
:1022D00013A3D3E90023FEF78DFE50B10023E36082
:1022E0002046FFF7E0FF2046FFF7CCFFBDEC028B56
:1022F00010BDF5EEC08AF1EE10FA0BD40123237461
:10230000F7EE007AB4EEE78AF1EE10FA05DDC4EDDF
:10231000037AE5E700232374F2E784ED038ADFE71D
:10232000EC51B81E85EBB13F10B5044600F05AF8E9
:10233000034BA3605E23237300236373204610BD09
:10234000000078410000000030B583B0044601224F
:1023500000F10C0100F049F8022201A9204600F02A
:1023600051F8A068FEF77CFB04460D469DF804205A
:102370009DF8053003F00F0303EB021307EE903ACC
:10238000F8EEE77A9FED147A67EE877AB5EE007A79
:1023900067EE877A17EE900AFEF762FB0CA3D3E98B
:1023A0000023FEF7DFFC02460B4620462946FEF7D7
:1023B000F9F9FEF785FE00EE100ADFED087AB4EEBB
:1023C000E70AF1EE10FA01DD9FED050A03B030BD1A
:1023D00052B81E85EB5104400000803D00000C42C5
:1023E0000000000001600271704700B583B0134621
:1023F000642200920A460179006800F021FF03B0D0
:102400005DF804FB00B583B01346642200920A46CF
:102410000179006800F0D0FF03B05DF804FB000014
:1024200000B583B0002100910C4B5A6C42F48042FD
:102430005A645A6C02F480420092009A01911A6C1C
:1024400042F080521A641B6C03F080530193019B8D
:10245000072000F0CBFA03B05DF804FB003802401F
:1024600030B589B000230393049305930693079333
:102470000268144B9A4201D009B030BD0025019585
:10248000114C236B43F002032363236B03F002031D
:102490000193019B4FF4407303931223049303238E
:1024A00006930423079303A9084800F0D5FA029580
:1024B000236C43F400132364236C03F4001302938E
:1024C000029BD9E70054004000380240000402405B
:1024D00082B00368104A934204D0104A93420ED04F
:1024E00002B07047002300930D4B5A6C42F001027A
:1024F0005A645B6C03F001030093009BF0E7002338
:102500000193074B5A6C42F002025A645B6C03F071
:1025100002030193019BE3E7000001400004014036
:102520000038024000B589B000230393049305935B
:102530000693079303681C4A934205D01B4A9342B3
:102540001AD009B05DF804FB00230193184B1A6BF5
:1025500042F001021A631B6B03F001030193019B1C
:102560004FF470630393122304930123079303A989
:10257000104800F071FAE4E7002302930C4B1A6B49
:1025800042F004021A631B6B03F004030293029BE4
:102590004FF470730393122304930323079303A947
:1025A000054800F059FACCE7000001400004014062
:1025B00000380240000002400008024000B589B027
:1025C0000023039304930593069307930268154B26
:1025D0009A4202D009B05DF804FB0021019103F595
:1025E000FA331A6C42F400321A641A6C02F40032A4
:1025F0000192019A02911A6B42F001021A631B6B5D
:1026000003F001030293029B0C2303930223049320
:10261000032306930723079303A9034800F01CFA3A
:10262000D8E700BF0044004000000240FEE7FEE79C
:10263000FEE7FEE7FEE770477047704708B500F019
:102640007BF908BD034AD2F8883043F47003C2F81E
:102650008830704700ED00E010B443684968526864
:10266000B0F800C0408800FB0CF0840823E0D3EDF4
:10267000006A91ED007AD3ED017A76EE876A91EDEA
:10268000016A93ED027A77EE867A91ED026AC2EDE5
:10269000006AC2ED017AD3ED037AD1ED036A37EE19
:1026A000067A77EEA67A82ED027AC2ED037A1033CB
:1026B00010311032013C002CD9D100F0030008E0A9
:1026C000F3EC017AB1EC017A77EE877AE2EC017AE9
:1026D00001380028F4D15DF8044B70470180428036
:1026E000436070472DE9F04703460E464568D2F82F
:1026F0000490B0F800804888B3F802E000275AE060
:1027000093ED007A03EB800392ED006AD2ED016A4B
:1027100027EE067A77EE277A93ED007A03EB8003B3
:1027200066EE876A76EEA76A93ED007A03EB800384
:1027300092ED026AD2ED037A27EE067A37EE267A18
:10274000D3ED006A03EB800367EEA67A77EE877A13
:102750001032013989B20029D2D10EF003010BE009
:10276000B2EC017AD3ED006A27EE267A77EE877A0B
:1027700003EB8003013989B20029F1D1EAEC017A37
:102780000CF1010C1FFA8CFC736803EB8C03013C09
:10279000A4B22CB14FEA9E012A46DFED0C7ADAE7AB
:1027A0000744BFB205EB8E0508F1FF381FFA88F821
:1027B000B8F1000F06D009EB870A736804464FF0A2
:1027C000000CE7E70020BDE8F08700BF0000000034
:1027D00010B4436849685268B0F800C0408800FBF4
:1027E0000CF0840823E0D3ED006A91ED007AD3ED7C
:1027F000017A76EEC76A91ED016A93ED027A77EE7F
:10280000C67A91ED026AC2ED006AC2ED017AD3ED9B
:10281000037AD1ED036A37EE467A77EEE67A82EDF7
:10282000027AC2ED037A103310311032013C002CD1
:10283000D9D100F0030008E0F3EC017AB1EC017AA1
:1028400077EEC77AE2EC017A01380028F4D15DF81E
:10285000044B70478B08DFED177A19E090ED007A92
:1028600027EE077A37EE277AD0ED017A67EEA77A5E
:1028700037EE877AD0ED027A67EEA77A37EE877A5D
:10288000D0ED037A67EEA77A77EE877A013B1030B6
:10289000002BE3D101F0030106E0B0EC017A27EE52
:1028A000077A77EE877A01390029F6D1C2ED007AEE
:1028B000704700BF0000000010B504460E4B1A78A8
:1028C0004FF47A73B3FBF2F30C4A1068B0FBF3F0E9
:1028D00000F0AEF868B90F2C01D901200AE00022FF
:1028E00021464FF0FF3000F093F8054B1C600020AC
:1028F00000E0012010BD00BF040000200000002007
:102900000800002008B50B4B1A6842F400721A60E8
:102910001A6842F480621A601A6842F480721A607F
:10292000032000F063F80020FFF7C6FFFFF778FDF3
:10293000002008BD003C0240034A1168034B1B788D
:102940000B441360704700BF5009002004000020B2
:10295000014B1868704700BF5009002038B5044685
:10296000FFF7F6FF0546B4F1FF3F02D0044B1B789A
:102970001C44FFF7EDFF401BA042FAD338BD00BF57
:1029800004000020002808DB0901C9B200F1604002
:1029900000F5614080F80013704700F00F00090156
:1029A000C9B2014B1954704714ED00E000B500F0B6
:1029B0000700C0F1070CBCF1040F28BF4FF0040C56
:1029C000031D062B0FD9C31E4FF0FF3E0EFA0CF06D
:1029D00021EA000199400EFA03FE22EA0E0241EAC2
:1029E00002005DF804FB0023EEE70000074AD3680D
:1029F00023F4E0631B041B0C000200F4E0600343BB
:102A000043F0BF6343F40033D360704700ED00E050
:102A100010B50446054BD868C0F30220FFF7C6FF87
:102A200001462046FFF7AEFF10BD00BF00ED00E0FD
:102A30000138B0F1807F0BD24FF0E0235861054A96
:102A4000F02182F823100020986107221A61704754
:102A50000120704700ED00E000230F2B00F2E3801F
:102A600070B582B065E085684FEA430E032404FA2E
:102A70000EF425EA0405CC6804FA0EF42C438460B5
:102A8000446824EA02044A68C2F300129A402243CE
:102A900042605CE0DC08083450F8242003F00705AD
:102AA000AD004FF00F0E0EFA05FE22EA0E0E0A6977
:102AB000AA4042EA0E0240F824205CE0062200E030
:102AC000002202FA0EF22A430234574D45F8242020
:102AD000564A94686FEA0C0224EA0C054E6816F414
:102AE000801F01D04CEA0405504CA560E46802EA5E
:102AF00004054E6816F4001F01D04CEA04054B4C47
:102B0000E560646802EA04054E6816F4003F01D0EF
:102B10004CEA0405454C6560246822404D6815F474
:102B2000803F01D04CEA0402404C226001330F2B5D
:102B300077D801229A400C6804EA020C32EA0404B5
:102B4000F4D14C6804F00304013C012C8BD94A6891
:102B500002F00302032A09D0C4685D000322AA40E0
:102B600024EA02048A68AA402243C2604A6802F04A
:102B70000302022A8ED004684FEA430E032202FAAF
:102B80000EF224EA02044A6802F0030202FA0EF28C
:102B9000224302604A6812F4403FC7D000220192EB
:102BA000234A546C44F480445464526C02F48042CE
:102BB0000192019A9C08A51C1B4A52F8255003F06B
:102BC000030E4FEA8E0E0F2202FA0EF225EA0205DC
:102BD000184A90423FF474AF02F58062904216D0DA
:102BE00002F58062904214D002F58062904212D0C9
:102BF00002F58062904210D002F5806290420ED0C1
:102C000002F5806290423FF459AF072259E7012252
:102C100057E7022255E7032253E7042251E7052232
:102C20004FE702B070BD704700380140003C0140E2
:102C300000380240000002400AB181617047090477
:102C40008161704703685A6912F4806F01D10020D6
:102C500070476FF480625A6100230363202280F87A
:102C60003D2080F83E30026C42F00402026480F89D
:102C70003C30012070472DE9F04107460D46904653
:102C80001E4624E0FFF764FE069BC01AB04200D83F
:102C9000EEB900233B63202287F83D2087F83E30C1
:102CA0003A6C42F020023A6487F83C3001201EE082
:102CB0003B689C6925EA040C1FFA8CFCBCFA8CFC6E
:102CC0004FEA5C1CE04511D1B6F1FF3FDAD1C5F304
:102CD0000743012BECD13B685B6925EA030C1FFA23
:102CE0008CFCBCFA8CFC4FEA5C1CEBE70020BDE8D6
:102CF000F0812DE9F04105460E46174698463DE025
:102D00001A6842F400721A602B686FF480625A618C
:102D100000232B63202285F83D2085F83E302A6C65
:102D200042F004022A6485F83C30012034E0FFF7C9
:102D30000FFEA0EB0800B84200D8FFB900232B63B8
:102D4000202285F83D2085F83E302A6C42F0200292
:102D50002A6485F83C3001201EE02B689C6926EA35
:102D60000404A4B2003C18BF0124A4B12B685A6922
:102D700012F4806FC4D1B7F1FF3FD8D1C6F3074337
:102D8000012BEAD12B685C6926EA0404A4B2003C5A
:102D900018BF0124E9E70020BDE8F081F0B583B059
:102DA00004460D4616461F46C36A082B0DD0012B5C
:102DB0000BD013F5803F08D0036B122B0AD10268A9
:102DC000136843F48073136004E02268136843F4CB
:102DD000807313600097334600224FF001112046A4
:102DE000FFF749FF80B92369B3F5804F16D12368F7
:102DF00005F0FE051D613B46324613492046FFF7AC
:102E000078FFF8B903B0F0BD23681B6813F4807F26
:102E100002D04FF4007323640320F3E7EB11226820
:102E200003F0060343F0F00313613B4632460749C3
:102E30002046FFF75EFF18B92368EDB21D61DAE79F
:102E40000120DFE70120DDE70200010008000100AA
:102E50002DE9F04184B004460D4616461F46C26A6D
:102E600001680B6843F480630B60082A0DD0012AC7
:102E70000BD012F5803F08D0036B112B0AD10268EA
:102E8000136843F48073136004E02268136843F40A
:102E9000807313600097334600224FF001112046E3
:102EA000FFF7E9FE98B92369B3F5804F19D123687C
:102EB00045F00105EDB21D613B4632462A492046E8
:102EC000FFF717FF00284CD104B0BDE8F08123685C
:102ED0001B6813F4807F02D04FF400732364032037
:102EE000F2E74FEAE51808F00608236848F0F00218
:102EF0001A613B4632461D492046FFF7FAFE08B1EB
:102F00000120E1E72368EDB21D613B4632461649D8
:102F10002046FFF7EEFE08B10120D5E7002203921C
:102F2000236859690391996903910399196841F4D8
:102F300080711960009733464FF001112046FFF76A
:102F40009AFE20B9226848F0F1031361B4E72368C0
:102F50001B6813F4807F02D04FF4007323640320B6
:102F6000B2E70120B0E700BF020001000800010045
:102F700070B504460D46164623685B6913F0800F52
:102F80001CD12046FFF75EFED0B9B5F1FF3FF3D06C
:102F9000FFF7DEFC801BA84201D8002DECD10023F6
:102FA0002363202284F83D2084F83E30226C42F0D6
:102FB0002002226484F83C30012000E0002070BD33
:102FC0000120FCE770B504460D46164623685B6990
:102FD00013F0040F1CD12046FFF734FED0B9B5F131
:102FE000FF3FF3D0FFF7B4FC801BA84201D8002DAF
:102FF000ECD100232363202284F83D2084F83E3066
:10300000226C42F02002226484F83C30012000E06F
:10301000002070BD0120FCE770B505460C46164641
:103020002B68596911F0400F29D1596911F0100F1F
:1030300015D1FFF78DFC801BA04201D8002CEFD1E9
:1030400000232B63202285F83D2085F83E302A6C32
:1030500042F020022A6485F83C30012070BD6FF0F8
:1030600010025A6100232B63202285F83D2085F849
:103070003E302A6C2A6485F83C300120EEE70020BF
:10308000ECE70000002800F0CC8070B5044690F812
:103090003D30002B77D0242384F83D30226813681C
:1030A00023F0010313602268136843F400431360A4
:1030B0002268136823F40043136000F0A7FB6268E2
:1030C0005A4B9A4264D85A4B98428CBF0023012332
:1030D000002B40F0A8805749A1FB00318B0C2568DC
:1030E0006A6822F03F0242EA91426A6021680A6AF5
:1030F00022F03F0266684D4DAE424FD80133134374
:103100000B622168CA6922F44F4222F0FF0265680F
:10311000464B9D424CD8431E6D00B3FBF5F3013383
:1031200040F6FC70034278D0C3F30B031A43CA6124
:1031300021680B6823F0C003E269206A024313434D
:103140000B6021688B6823F4034323F0FF0322699B
:10315000E068024313438B602168CB6823F0FF03D0
:103160006269A06902431343CB602268136843F08D
:103170000103136000202064202384F83D30206385
:1031800084F83E0070BD80F83C30FFF769F982E7B3
:10319000294B98428CBF0023012399E74FF4967581
:1031A00005FB03F3254DA5FB03539B090133A6E75C
:1031B000A668BEB9431E05EB450CB3FBFCF3013317
:1031C000C3F30B03B3FA83F35B0943BBC6B9431ED6
:1031D00005EB4505B3FBF5F30133C3F30B0343F4F0
:1031E0000043A3E7431E05EB850C0CEB8C0CB3FBF3
:1031F000FCF30133C3F30B03B3FA83F35B09E4E796
:10320000431E05EB850505EB8505B3FBF5F301339F
:10321000C3F30B0343F4404388E7042386E7012309
:1032200084E7012070470120ACE700BFA0860100C1
:103230007F841E0083DE1B43FF083D00D34D6210D8
:103240002DE9F04385B004460F46914698460C9E02
:10325000FFF77EFB054694F83D00C0B2202804D05D
:103260000227384605B0BDE8F083009519230122F6
:103270004F492046FFF7FFFC002840F0928094F869
:103280003C30012B00F08F80012384F83C30236810
:103290001A6812F0010F03D11A6842F001021A6095
:1032A0002268136823F400631360212384F83D30FF
:1032B000102384F83E3000232364C4F82490A4F83B
:1032C0002A80638D23853B4BE3622B463246394689
:1032D0002046FFF763FD0746002866D100230393CD
:1032E00023685A6903929B690393039B11E0236C43
:1032F000042B01D00127B4E72268136843F400735C
:103300001360F7E72A4631462046FFF75BFE0028A8
:103310002ED1238D002B36D02A4631462046FFF78A
:1033200027FE0028E3D1626A236812781A61606A76
:10333000431C6362618D89B2013989B26185238D35
:10334000013B9BB223852268516911F0040FD9D04B
:10335000002BD7D043781361636A01336362638DB6
:103360009BB2013B9BB26385238D013B2385C9E75B
:10337000236C042B01D0012773E72268136843F400
:1033800000731360F7E72268136843F40073136057
:10339000202384F83D30002384F83E3084F83C300C
:1033A0005FE702275DE702275BE7012759E700BFD8
:1033B000020010000000FFFF2DE9F04387B0044633
:1033C0000F46914698460E9EFFF7C2FA054694F8BE
:1033D0003D00C0B2202804D00227384607B0BDE81F
:1033E000F08300951923012289492046FFF743FC09
:1033F000002840F0458194F83C30012B00F04281D8
:10340000012384F83C3023681A6812F0010F03D1BD
:103410001A6842F001021A602268136823F40063FC
:103420001360222384F83D30102384F83E300023BB
:103430002364C4F82490A4F82A80638D2385754BF7
:10344000E3622B46324639462046FFF701FD074628
:10345000002840F01981238D5BB9029323685A69D3
:1034600002929A690292029A1A6842F400721A60F1
:103470007AE0012B0FD0022B1FD02268136843F48F
:10348000806313600023059323685A6905929B6942
:103490000593059B68E02268136823F4806313603A
:1034A0000023039323685A6903929A690392039A4B
:1034B0001A6842F400721A6056E02268136823F416
:1034C000806313602268136843F400631360002371
:1034D000049323685A6904929B690493049B43E014
:1034E0002A4631462046FFF797FD002840F0CE805F
:1034F00023681A69636A1A70636A01336362238DF1
:10350000013B2385638D9BB2013B9BB263852BE01E
:1035100000953346002240492046FFF7ACFB0028C7
:1035200040F0B6802268136843F400731360236888
:103530001A69636A1A70626A531C6362238D013BC5
:103540002385638D9BB2013B9BB2638523681B6916
:103550005370636A01336362238D013B2385638D5E
:103560009BB2013B9BB26385218D00297FD003294B
:1035700054D80129B4D00229CAD00095334600227C
:1035800025492046FFF777FB002840F0838022681A
:10359000136823F48063136023681A69636A1A70DE
:1035A000636A01336362238D013B2385618D89B298
:1035B000013989B2618500953346002216492046BB
:1035C000FFF759FB002867D12268136843F40073A2
:1035D000136023681A69636A1A70626A531C636213
:1035E000238D013B2385638D9BB2013B9BB2638599
:1035F00023681B695370636A01336362238D013B47
:103600002385638D9BB2013B9BB26385ACE700BF12
:10361000020010000000FFFF040001002A463146AE
:103620002046FFF7F9FC002838D123681A69636A3D
:103630001A70626A531C6362238D013B2385638D7C
:103640009BB2013B9BB263852368596911F0040F5B
:103650008AD01B695370636A01336362238D013B17
:103660002385638D9BB2013B9BB263857CE720235E
:1036700084F83D30002384F83E3084F83C30ACE6DA
:103680000227AAE60227A8E60127A6E60127A4E664
:103690000127A2E60127A0E601279EE601279CE676
:1036A000002800F09B8070B50D4604464F4B1B6808
:1036B00003F00F038B4208D2CBB24C4A137013684D
:1036C00003F00F038B4240F08B80236813F0020F4E
:1036D00017D013F0040F04D0454A936843F4E05325
:1036E0009360236813F0080F04D0414A936843F4B1
:1036F000604393603E4A936823F0F003A1680B4354
:103700009360236813F0010F32D06368012B21D03E
:103710009A1E012A25D9364A126812F0020F61D08A
:1037200033498A6822F0030213438B60FFF710F9D4
:1037300006462F4B9B6803F00C036268B3EB820FC5
:1037400016D0FFF705F9801B41F288339842F0D973
:10375000032042E0264A126812F4003FE0D1012023
:103760003BE0234A126812F0007FD9D1012034E0F7
:103770001E4B1B6803F00F03AB4207D9EAB21B4B89
:103780001A701B6803F00F03AB422DD1236813F0AE
:10379000040F06D0164A936823F4E053E1680B4304
:1037A0009360236813F0080F07D0114A936823F43D
:1037B0006043216943EAC103936000F047F80C4B72
:1037C0009B68C3F303130B4AD35CD8400A4B1860C1
:1037D0000A4B1868FFF770F8002070BD0120704791
:1037E0000120FAE70120F8E70120F6E7003C02405B
:1037F00000380240601B0108000000200800002083
:10380000014B1868704700BF0000002008B5FFF7A3
:10381000F7FF044B9B68C3F38223034AD35CD84071
:1038200008BD00BF00380240581B010808B5FFF76B
:10383000E7FF044B9B68C3F34233034AD35CD84091
:1038400008BD00BF00380240581B010808B5604B96
:103850009B6803F00C03082B06D00C2B5ED0042BC6
:1038600040F0B4805B4833E0594B5A6802F03F02A5
:103870005B6813F4800F2CD0554B5868C0F3881048
:103880004FEA401CBCEB000C6EEB0E0E4FEA8E13A1
:1038900043EA9C634FEA8C11B1EB0C0163EB0E031E
:1038A000DB0043EA5173C90011EB000C43F1000344
:1038B000590200234FEA4C2041EADC51FDF750FC4D
:1038C000434B5B68C3F3014301335B00B0FBF3F090
:1038D00008BD3F4B5868C0F388104FEA401CBCEB52
:1038E000000C6EEB0E0E4FEA8E1343EA9C634FEA18
:1038F0008C11B1EB0C0163EB0E03DB0043EA517357
:10390000C90011EB000C43F10003990200234FEAB8
:103910008C2041EA9C51FDF723FCD1E72C4B5A68DF
:1039200002F03F025B6813F4800F2AD0284B5868DE
:10393000C0F388104FEA401CBCEB000C6EEB0E0E7F
:103940004FEA8E1343EA9C634FEA8C11B1EB0C01F2
:1039500063EB0E03DB0043EA5173C90011EB000C6B
:1039600043F10003590200234FEA4C2041EADC51A5
:10397000FDF7F6FB164B5B68C3F30273B0FBF3F085
:10398000A6E7134B5868C0F388104FEA401CBCEB05
:10399000000C6EEB0E0E4FEA8E1343EA9C634FEA67
:1039A0008C11B1EB0C0163EB0E03DB0043EA5173A6
:1039B000C90011EB000C43F10003990200234FEA08
:1039C0008C2041EA9C51FDF7CBFBD3E702487FE70F
:1039D0000038024000127A000024F400002800F0B1
:1039E000018270B582B00446036813F0010F41D024
:1039F000994B9B6803F00C03042B32D0964B9B68C9
:103A000003F00C03082B27D0934B9B6803F00C03A7
:103A10000C2B59D06368B3F5803F5BD0B3F5A02F72
:103A20005ED08D4B1A6822F480321A601A6822F434
:103A300080221A606368002B5CD0FEF789FF054680
:103A4000854B1B6813F4003F14D1FEF781FF401B28
:103A50006428F5D90320CCE17F4B5B6813F4800F19
:103A6000D2D07D4B1B6813F4003F03D06368002B5A
:103A700000F0BA81236813F0020F60D0764B9B6888
:103A800013F00C0F4AD0744B9B6803F00C03082B07
:103A90003FD0714B9B6803F00C030C2B69D0E3689B
:103AA000002B75D06D4B01221A60FEF751FF0546C1
:103AB000694B1B6813F0020F61D1FEF749FF401BF1
:103AC0000228F5D9032094E1634B5B6813F4800F5F
:103AD000A0D0C6E7604A136843F480331360A9E7B7
:103AE0005D4B1A6842F480221A601A6842F48032F0
:103AF0001A609FE7FEF72CFF0546574B1B6813F42F
:103B0000003FB7D0FEF724FF401B6428F5D90320FF
:103B10006FE1514B5B6813F4800FBAD14E4B1B68B9
:103B200013F0020F03D0E368012B40F05F814A4A93
:103B3000136823F0F803216943EAC1031360236883
:103B400013F0080F49D06369002B33D0434B012297
:103B5000C3F8802EFEF7FCFE05463F4B5B6F13F06B
:103B6000020F3AD1FEF7F4FE401B0228F5D90320DC
:103B70003FE1394B5B6813F4800F90D1CEE7364AB2
:103B8000136823F0F803216943EAC1031360D6E701
:103B9000324B00221A60FEF7DBFE05462E4B1B68F7
:103BA00013F0020FCBD0FEF7D3FE401B0228F5D94D
:103BB00003201EE1294B0022C3F8802EFEF7C8FE29
:103BC0000546254B5B6F13F0020F06D0FEF7C0FED3
:103BD000401B0228F5D903200BE1236813F0040FE2
:103BE00076D01D4B1B6C13F0805F33D10023019303
:103BF000194B1A6C42F080521A641B6C03F080530C
:103C00000193019B0125164B1B6813F4807F29D07B
:103C1000A368012B3AD0052B3ED00F4B1A6F22F030
:103C200001021A671A6F22F004021A67A368002BB8
:103C30003CD0FEF78DFE0646074B1B6F13F0020FBC
:103C400045D1FEF785FE801B41F288339842F3D9B7
:103C50000320CEE00025D6E70038024000004742AE
:103C6000007000406B4A136843F480731360FEF7E2
:103C70006FFE0646674B1B6813F4807FC8D1FEF7C2
:103C800067FE801B0228F5D90320B2E0624A136F59
:103C900043F001031367C9E75F4B1A6F42F0040258
:103CA0001A671A6F42F001021A67BFE7FEF750FE6B
:103CB0000646594B1B6F13F0020F08D0FEF748FE63
:103CC000801B41F288339842F3D9032091E0EDB98B
:103CD000A369002B00F08C804F4A926802F00C021E
:103CE000082A54D0022B17D04C4B00221A66FEF73C
:103CF0002FFE0446484B1B6813F0007F45D0FEF7AB
:103D000027FE001B0228F5D9032072E0424A136CFB
:103D100023F080531364DBE7404B00221A66FEF762
:103D200017FE05463C4B1B6813F0007F06D0FEF7DC
:103D30000FFE401B0228F5D903205AE0E369226AEE
:103D40001343626A43EA8213A26A5208013A43EAC1
:103D50000243E26A43EA0263226B43EA02732E4A99
:103D600053602E4B01221A66FEF7F2FD04462A4BE1
:103D70001B6813F0007F06D1FEF7EAFD001B022846
:103D8000F5D9032035E0002033E0002031E0012B9D
:103D900031D0214B5B6803F48001E26991422CD160
:103DA00003F03F02216A8A4229D1616A47F6C07254
:103DB0001A40B2EB811F24D103F44031A26A5208A9
:103DC000013AB1EB024F1ED103F07062E16AB2EB2F
:103DD000016F1AD103F0E043226BB3EB027F16D1DF
:103DE000002006E001207047012002E0012000E0F1
:103DF000002002B070BD0120FBE70120F9E701209F
:103E0000F7E70120F5E70120F3E70120F1E70120C2
:103E1000EFE700BF0070004000380240000047425A
:103E200030B4036A23F001030362036A42688469C1
:103E300024F0730C0C6844EA0C0423F0020C8B6829
:103E400043EA0C03114DA84203D005F58065A84252
:103E500005D123F00803CD682B4323F004030B4D59
:103E6000A84203D005F58065A84207D122F440722C
:103E70004D6945EA020C8A6942EA0C02426084619B
:103E80004A684263036230BC704700BF00000140D3
:103E900030B4036A23F480730362036A4268C4691E
:103EA00024F0730C0C6844EA0C0523F400738C684E
:103EB00043EA0423114CA04203D004F58064A042DD
:103EC00006D123F40063CC6843EA042323F480631F
:103ED0000A4CA04203D004F58064A04207D122F42A
:103EE00040524C6942EA04128C6942EA0412426070
:103EF000C5614A68C263036230BC7047000001407C
:103F000030B4036A23F480530362036A4468C269CD
:103F100022F4E6420D6842EA052223F400538D683C
:103F200043EA0533094DA84203D005F58065A84250
:103F300004D124F480444D6944EA85144460C2618C
:103F40004A680264036230BC704700BF0000014051
:103F500010B4036A046A24F001040462846924F042
:103F6000F00C4CEA021223F00A030B438261036255
:103F70005DF8044B704710B4036A23F0100303622A
:103F80008469036A24F4704C4CEA023223F0A003E3
:103F900043EA0113826103625DF8044B7047836852
:103FA00023F070030B4343F00703836070477047AF
:103FB000704700000368304A904212D0B0F1804F41
:103FC0000FD0A2F57C4290420BD002F58062904265
:103FD00007D002F58062904203D002F57842904209
:103FE00003D123F070034A681343234A90422AD036
:103FF000B0F1804F27D0A2F57C42904223D002F549
:10400000806290421FD002F5806290421BD002F580
:104010007842904217D002F57052904213D002F5C8
:10402000806290420FD002F5806290420BD0A2F5E0
:104030009832904207D002F58062904203D002F598
:104040008062904203D123F44073CA68134323F083
:1040500080034A69134303608B68C3620B68836201
:10406000054B984203D003F58063984201D10B6958
:1040700003630123436170470000014040B310B562
:10408000044690F83D30F3B1022384F83D302146D8
:1040900051F8040BFFF78EFF012384F8463084F8B3
:1040A0003E3084F83F3084F8403084F8413084F862
:1040B000423084F8433084F8443084F8453084F842
:1040C0003D30002010BD80F83C30FEF701FADBE700
:1040D0000120704740B310B5044690F83D30F3B16D
:1040E000022384F83D30214651F8040BFFF762FFAC
:1040F000012384F8463084F83E3084F83F3084F859
:10410000403084F8413084F8423084F8433084F8F9
:10411000443084F8453084F83D30002010BD80F8EC
:104120003C30FFF744FFDBE70120704740B310B598
:10413000044690F83D30F3B1022384F83D30214627
:1041400051F8040BFFF736FF012384F8463084F85A
:104150003E3084F83F3084F8403084F8413084F8B1
:10416000423084F8433084F8443084F8453084F891
:104170003D30002010BD80F83C30FFF719FFDBE731
:104180000120704730B4036A23F010030362036A0E
:104190004468826922F4E6420D6842EA052223F06F
:1041A00020038D6843EA0513114DA84203D005F59D
:1041B0008065A84206D123F08003CD6843EA051349
:1041C00023F040030A4DA84203D005F58065A842BC
:1041D00007D124F440644D6944EA85048D6944EABA
:1041E0008504446082614A688263036230BC704720
:1041F0000000014090F83C30012B28D010B5044657
:10420000012380F83C300C2A1CD8DFE802F0071BA1
:104210001B1B0C1B1B1B111B1B1B16000068FFF735
:10422000FFFD00200FE00068FFF7ACFF00200AE070
:104230000068FFF72DFE002005E00068FFF760FE34
:10424000002000E00120002384F83C3010BD022053
:10425000704738B590F83C30012B66D004460D46C7
:10426000012380F83C300C2A5AD8DFE802F00759C5
:1042700059591B5959593059595944000068FFF789
:10428000CFFD2268936943F0080393612268936924
:1042900023F0040393612268936929690B439361B6
:1042A00000203EE00068FFF76DFF2268936943F449
:1042B000006393612268936923F4806393612268A9
:1042C0009369296943EA01239361002029E000688A
:1042D000FFF7DEFD2268D36943F00803D36122684B
:1042E000D36923F00403D3612268D36929690B439E
:1042F000D361002015E00068FFF702FE2268D36951
:1043000043F40063D3612268D36923F48063D361EB
:104310002268D369296943EA0123D361002000E0C0
:104320000120002384F83C3038BD0220FCE710B4A3
:10433000846824F47F4C42EA03220A4342EA0C02D6
:1043400082605DF8044B704790F83C30012B78D0C8
:1043500010B50446012380F83C30022380F83D303C
:104360000268936823F47F4323F0770393600B681C
:10437000602B4CD023D8402B54D011D8202B03D005
:104380000AD80BB1102B05D119462068FFF707FE9C
:10439000002028E0012026E0302BF5D0012022E08B
:1043A000502B0AD1CA6849680068FFF7D1FD502137
:1043B0002068FFF7F4FD002015E0012013E0B3F5BD
:1043C000805F3AD0B3F5005F14D0702B37D1CB6843
:1043D0004A6889680068FFF7AAFF2268936843F07B
:1043E000770393600020012384F83D30002384F894
:1043F0003C3010BDCB684A6889680068FFF797FFBA
:104400002268936843F4804393600020EBE7CA6816
:1044100049680068FFF7AFFD60212068FFF7BFFD26
:104420000020E0E7CA6849680068FFF791FD402175
:104430002068FFF7B4FD0020D5E70020D3E7012076
:10444000D1E70220704701F01F014FF0010C0CFA78
:1044500001FC036A23EA0C030362036A8A401343E4
:104460000362704710B504460846002942D194F80B
:104470003E30DBB2013B18BF0123002B6ED1002878
:1044800051D1022384F83E30012201462068FFF713
:10449000DAFF2368334A934203D002F580629342E5
:1044A00003D15A6C42F400425A6423682D4A934265
:1044B00049D0B3F1804F46D0A2F57C42934242D01E
:1044C00002F5806293423ED002F5806293423AD078
:1044D00002F57842934236D002F57052934232D0C0
:1044E000A2F5943293422ED01A6842F001021A606B
:1044F000002032E0042908D008290DD094F841307A
:10450000DBB2013B18BF0123B7E794F83F30DBB2C1
:10451000013B18BF0123B0E794F84030DBB2013B08
:1045200018BF0123A9E7042805D0082807D00223D3
:1045300084F84130A8E7022384F83F30A4E702233F
:1045400084F84030A0E79A6802F00702062A07D0F4
:104550001A6842F001021A60002010BD0120FCE739
:104560000020FAE70000014090F83C20012A3DD0ED
:1045700010B40346012280F83C20022280F83D203E
:1045800002685068946820F0700C086840EA0C00DB
:1045900050601A68164882421AD0B2F1804F17D084
:1045A000A0F57C40824213D000F5806082420FD09B
:1045B00000F5806082420BD000F57840824207D03F
:1045C00000F57050824203D0A0F59430824204D1AD
:1045D00024F08004496821439160012283F83D2042
:1045E000002083F83C005DF8044B704702207047C0
:1045F00000000140024690F83C30012B21D00123FD
:1046000080F83C30CB6823F440738868034323F47C
:1046100080634868034323F400630868034323F47A
:1046200080530869034323F400534869034323F488
:104630008043C9690B4311684B64002082F83C0039
:10464000704702207047000010B5044602681369E5
:1046500023F44053C1680B431361836802691A4312
:1046600043691A43C3691A430168CB6823F41643AC
:1046700023F00C031343CB600268536923F44073A7
:1046800081690B4353610368314A934206D002F5B6
:104690008062934202D0FFF7B9F801E0FFF7C6F855
:1046A000E369B3F5004F29D00021031849411B18D5
:1046B00041F10001C90041EA5371DB001818636839
:1046C0004FEA83024FEA937341F10001FCF748FD82
:1046D000204AA2FB00314909642303FB11031B019B
:1046E0003233A2FB03235B0903F0F00202EB011259
:1046F00003F00F03216813448B6010BD00230218E0
:1047000043EB0301121841F10001C90041EA527163
:10471000D200101841F10001626892185B41FCF769
:104720001FFD0C4AA2FB00314909642303FB11035E
:10473000DB003233A2FB03235B095A0002F4F87258
:1047400002EB011203F00703216813448B60D4E7E6
:10475000001001401F85EB512DE9F84305460F4637
:1047600016469946DDF820802B681C6837EA040459
:104770000CBF01240024B4422DD1B8F1FF3FF3D087
:10478000B8F1000F05D0FEF7E3F8A0EB09004045B3
:10479000EAD92A6802F10C0353E8003F23F4D073EE
:1047A0000C3242E800310029F3D12A6802F11403E7
:1047B00053E8003F23F00103143242E8003100299E
:1047C000F3D1202385F83D3085F83E30002385F86D
:1047D0003C30032000E00020BDE8F88358B310B55A
:1047E000044690F83D300BB3242384F83D30226812
:1047F000D36823F40053D3602046FFF725FF2268D7
:10480000136923F4904313612268536923F02A0348
:1048100053612268D36843F40053D36000202064BE
:10482000202384F83D3084F83E3010BD80F83C30C1
:10483000FDF7C4FED8E7012070472DE9F04182B0B2
:104840001E4690F83D30DBB2202B54D104460D4675
:104850009046002953D0002A53D090F83C30012BC9
:1048600051D0012380F83C3000230364212380F8D9
:104870003D30FEF76DF80746A4F82480A4F82680A2
:10488000A368B3F5805F05D04FF00008002384F8DB
:104890003C3012E0236913B14FF00008F6E7A84658
:1048A0000025F3E738F8023B2268C3F3080353609E
:1048B000E28C92B2013A92B2E284E38C9BB273B181
:1048C00000963B46002280212046FFF745FFE0B9D5
:1048D000002DE7D015F8012B23685A60E8E7009611
:1048E0003B46002240212046FFF736FF78B92023BF
:1048F00084F83D3000E0022002B0BDE8F0810120E4
:10490000FAE70120F8E70220F6E70320F4E70320A6
:10491000F2E70000DFF834D00D480E490E4A0023BC
:1049200002E0D458C4500433C4188C42F9D30B4A63
:104930000B4C002301E013600432A242FBD3FDF7CD
:1049400081FE07F073FAFDF7A1FB7047000002201B
:1049500000000020CC060020743A0108CC0600209C
:10496000A80C0020FEE704F08FBD0000194A50F8A3
:10497000081C536870B5A0F1080413B16518AB4268
:1049800003D940F8043C546070BD5E681FD11B68B9
:104990000B4440E90236F6E71A1D33465E6836B12D
:1049A000B542F9D801BF2E686D685D60891913683A
:1049B0001D685E19B4421FBF5B6840F8043C136871
:1049C00040F8081C06BF6D181D605C60DCE704320F
:1049D000E4E700BF540900200830082830B50F4A2A
:1049E00038BF0820073020F0070352F8040F80B1C9
:1049F000016844688B420DD8CD1A072D89BFC118B4
:104A000001604C60C5508ABF106821460360116088
:104A1000083030BD021D2046E9E700BF54090020E0
:104A200010B500F18004204605F038FE034630B989
:104A30002046FFF7D1FF034608B900F007FC8022AB
:104A40000021184607F046F8803010BD064BD3E928
:104A5000022380381344984203D2824201D2FFF7E6
:104A600085BF05F023BE00BF5409002070B50D4678
:104A700019460368049E9D4204D90A490A482A46F9
:104A800000F020FE5C1B944228BF1446A64232462A
:104A900028BF224622B14068284406F06BFF00B9C7
:104AA000A01B70BD701B01088A1B01082DE9F0478F
:104AB000394E3A488CB00025C6E90155F56005F03D
:104AC0009FFD374B044693E8030008230693354BBC
:104AD0000DF11008CDE907350923099388E8030093
:104AE000314B0A9304230B934FF00F09B4B90B9B7E
:104AF000089D402BA8BF4023002D08BF06253E354A
:104B00005D43AD00F56035B1284605F0C7FDB060E6
:104B100000283CD1F4600CB0BDE8F0872378CDF8D4
:104B200000903A2B08BF013423460F220021404653
:104B3000FFF79CFF28BBE37B2E2B22D110344FF0D4
:104B4000030A06AFBAF1010A1BD03D6800952A4658
:104B5000234600213846FFF789FF024610B9635DFE
:104B60003D2B01D00C37EDE70135601903A906F0A4
:104B7000AFFA039C23783A2B00D013B9002800DB4E
:104B8000B86020463A2106F0F7FF0446AEE7C0E9D8
:104B900000547060BFE700BF54090020BB1B010830
:104BA0002C190108CC1B0108D51B01081EB400F00C
:104BB0009CF81EBCFCF77AFB0378472B17D143788F
:104BC0004E2B14D18378552B11D1C378432B0ED1A2
:104BD0000379432B0BD143792B2B08D183792B2BD2
:104BE00005D1C07901288CBF00200120704700202A
:104BF000704700002DE9F3411D460378472B0E4610
:104C00000246C17913D143784E2B10D18378552BAE
:104C10000DD1C378432B0AD10379462B07D14379B1
:104C20004F2B04D18379522B01D1002931D010466A
:104C3000FFF7C2FF80F00104E4B2002300200190DE
:104C400053BB5CBB01290ABF52F8203CA2F12003F0
:104C5000783B012908BF52F8202C1C6818BF583235
:104C60000192236820469B689847C8B1019B1B6846
:104C700001930227336801AAD3F81080214601234B
:104C80003046C04770B1019B2B60384602B0BDE88A
:104C9000F08101230C46D1E7034CE2E7034CE0E747
:104CA0000127E7E70746F0E7BC240108E8240108EC
:104CB00010B5044600F044F802462046A4F1200155
:104CC000FFF77AFF60B154F8043C0133012B44F83C
:104CD000043C03D1936844F8083C9160012010BD66
:104CE0009368002BF9D000F0B1FA10B500F028F865
:104CF000826801460AB900F0A9FA02F120042046B0
:104D0000FFF75AFF40B1D369013BD36113B99069F2
:104D100088609361204610BD8860FBE7704770474C
:104D200000487047EF1B010810B504210446FFF747
:104D30001AFE204610BD000000487047640900209C
:104D4000004870476409002030B500231A4610F867
:104D5000015B05F07F04944023432C0602F1070217
:104D6000F5D40B6030BD30B500231A4610F8014B66
:104D700004F07F0595402B43250602F10702F5D488
:104D80001F2A06D8640642BF4FF0FF3404FA02F22D
:104D900013430B6030BD50282DE9F3410646884689
:104DA00015461F4608D1D01C20F0030050F8044BD4
:104DB0003C6002B0BDE8F08100F00F030C2B2ED850
:104DC000DFE803F025071D25292D2D2D2D18212580
:104DD000290001A92846FFF7B7FF019C002CE7D066
:104DE00006F07003102B08BFA8464444330648BFA2
:104DF0002468DDE701A92846FFF7B5FFEDE728465F
:104E000030F8024BEAE7284630F9024BE6E728463D
:104E100050F8044BE2E7284650F8084BDEE705F06F
:104E2000E1FB08B50346FF2B08460DD003F07003E5
:104E3000302B0FD004D8202B08D005D905F0D2FB99
:104E4000402B0BD0502BF9D1002008BDBDE8084005
:104E50000CF002BDBDE808400CF0FBBCBDE808400A
:104E60000CF0E9BC70B50C460146204615461E46BE
:104E7000FFF7D7FF334601462A462046BDE870407B
:104E8000FFF789BF73B50C461546064608B10CF00E
:104E9000D2FC2246286012F8011BFF291CD02B1DD2
:104EA0003046FFF7DFFF0246104610F8013BFF2BAC
:104EB00014D010232B7501A9FFF746FF019B034473
:104EC000EB6010F8013B6B7501A9FFF73DFF019BFB
:104ED00003442B6102B070BD6860E5E72B750023C9
:104EE000EEE71FB503AB009300230A4619460CF00A
:104EF00071F8039805B05DF804FB00002DE9F04F50
:104F000093B00023079300F00303012B05460C46E2
:104F1000164610D0022B03D0002B3BD101073BD506
:104F2000314620460CF072FC18B1092013B0BDE8E0
:104F3000F08F0820FAE7020723D5022305F00805C1
:104F40001D430CAB009300230C22194630460C94F1
:104F50000CF064F8062D21D1D4F83080D4E90A7918
:104F6000B8F1000F0CBF4FF0010A4FF0030A15F023
:104F7000080500F00C81BAF1010F40F0018100F04A
:104F800065F90F6A30460D21FFF7ABFF8742D4D198
:104F90000623D3E705F026FB0123CFE730460CF0CC
:104FA0004FFC81460028BBD00CAA01463046FFF7D3
:104FB00069FF9DF844B0029031465846FFF731FF33
:104FC0000F2103900E903046FFF78BFF029A20F0DE
:104FD000010808F1FF38109F974215D80027B846FE
:104FE0004FF0010AEB07C2D5BAF1020F98D00D219C
:104FF0003046079DFFF775FFC4E90A79C4E9080543
:10500000C4F83080062091E79DF845A008AB5146D2
:105010000020FFF727FF09AB024651460020FFF7AB
:1050200021FF0AAB024651460020FFF71BFF0BA9E8
:10503000FFF78AFE0C9B08990B444345024651D862
:1050400009990B444345C6D9DDF82880B8F1000F13
:1050500001D00D9B98440B9B002B3BD0B8F1000F67
:105060003FF45EAF15F0080204923DD04722227053
:105070004E2262705522A2704322E27046222271B3
:105080004F2262715222A2710022E271013BF81894
:105090000023029309A9FFF766FE0AA90590FFF70E
:1050A00062FE099F002F68D042DDBBF1FF0F3BD0AD
:1050B0000BF00703042B3FF66DAF01A252F823F06B
:1050C000FB500008954F00082D510008FB500008C8
:1050D00025510008B8F1000F3FF422AF00274FF030
:1050E000020A7FE73A4676E7E279012A0CBF54F8D4
:1050F000202C04F158020792C8E704220F990BAB49
:1051000002FB171258460399FFF745FE0B9931B180
:105110003CB307AB00222046FFF76CFD08B34FF00D
:10512000030A5FE70822E9E70022E7E70222E5E752
:105130000F9B6FF04042D21B03EB820AC4B104996B
:10514000B1B9079B0B93AAF1040A5AF8041F00296E
:10515000E5D00BAB002251442046FFF74BFD002861
:10516000F3D00A9800285CD0059B0344184691E7C9
:1051700053F82230002BF4D1D1E701230293F0E75A
:10518000002F22DA00F074F804F033FAF7E6BAF1EF
:10519000010F02D1204604F096F9002F15DA0CAA6F
:1051A00049463046FFF76EFE9DF844003146FFF752
:1051B00038FE0F9BFA4303EB820353F8252052BBC2
:1051C0000422C4E90A50C4E90C2300230BAD1A469B
:1051D0001946009530460B940BF020FF002319462A
:1051E0000122009530460B970BF018FF0F21304637
:1051F000FFF777FE00F0010040EA080000230B9063
:1052000000950F22194630460BF008FFBAF1020F45
:1052100003D007208AE60135CFE72046FFF748FD97
:10522000F7E7029B002B3FF47BAE57E708B58047BA
:1052300005F0D8F904F0DDF905F0D4F9024B18684F
:10524000BFF35B8F704700BF1000002008B5FFF769
:10525000F5FFFFF7EBFF08B58047FFF7F7FF00000A
:10526000024B1868BFF35B8F704700BF0C00002033
:1052700008B5FFF7F5FFFFF7EEFF012810B503D9DA
:1052800051F8140CFFF7D2FFA1F12803BFF35B8F95
:1052900053E8002F013A43E800200028F8D1BFF37B
:1052A0005B8F5AB951F81C3C01F158040BB12046F0
:1052B00098472046BDE81040FFF7C8BB10BD00006E
:1052C00038B5002540E91E1240F8805C0446FFF71F
:1052D000C7FF44F8700CFFF7B1FF472304F8583CB0
:1052E0004E2304F8573C552304F8563C432304F856
:1052F000553C04F8543C2B2304F8533C04F8523C2E
:1053000004F8515C034B44F86C0C44F8503CA4F195
:10531000800038BD7B52000870B504460D46164625
:10532000FFF70EFD436801334360324629462046AD
:10533000FFF7C6FF0446012344F8283B2046FBF74D
:10534000A3FF204604F055F9FFF780FF10B5FFF7E3
:10535000F7FCD0E90042013242604CB394F82020BF
:10536000472A27D194F821204E2A23D194F82220CD
:10537000552A1FD194F82320432A1BD194F82420C6
:10538000432A17D194F825202B2A13D194F82620EC
:105390002B2A0FD194F82720012A0BD86269524298
:1053A000626120342046FBF793FF204604F021F988
:1053B000FFF74CFF00220260F3E7000010B5034B3B
:1053C0000360044600F0ADF8204610BD40250108FA
:1053D00010B50446FFF7F2FF20460821FFF7C3FA95
:1053E000204610BD012838BF012010B504462046D4
:1053F00005F054F900B110BD04F056F940B904208D
:10540000FFF70EFB034B044A04490360FFF784FFD8
:105410008047ECE70026010855580008EC250108F4
:1054200010B5034B0360044600F048FA204610BD57
:10543000A025010810B50446FFF7F2FF20460C2115
:10544000FFF791FA204610BD2DE9F041DDF81880F4
:10545000904506460F4615461C460BD0B0680368BB
:10546000CDF818801E6A2A4623463946B446BDE860
:10547000F0416047194600F059F80028EED00620A8
:10548000BDE8F0812DE9F14F0D461946DDE90A4BE3
:10549000DDE90CA681461746984600F047F890B122
:1054A000002D3460377109DB2C44A24514BF012460
:1054B0000624B471002001B0BDE8F08F0235F9D1A7
:1054C0000123B371F6E7544506D15946484600F02A
:1054D0002DF808B17771EDE7D9F808000368CDE938
:1054E0000CA6CDE90A4BDC693A4643462946A44658
:1054F00001B0BDE8F04F60472DE9F04107460C468A
:1055000015461E4600F00DFA48B9B86803689F6951
:105510002A4633462146BC46BDE8F0416047BDE817
:10552000F08170470020704700207047814208B525
:105530000ED0406803782A2B0CD049680B782A2BB0
:1055400008BF0131FAF75CFEB0FA80F0400908BDEF
:105550000120FCE70020FAE7FFF7E8BF324B1A789A
:1055600073B5324C32B123683148D96805F0F8FE82
:1055700005F038F801221A7004F088F8002838D0B5
:1055800045682B782A2B08BF013500224FF0FF33E6
:1055900011460193284601AB03F022FF236806461B
:1055A000D968244805F0DCFE019BF3B92368D9686B
:1055B000304605F0D5FE23681F48D96805F0D0FEB7
:1055C000019B13B9304605F071F8FFF7BFFE0129C2
:1055D00020D104F00EF803689B68984723680546BD
:1055E000D968164805F0BCFE07E023682846D9684C
:1055F000DFE723681248D968B8E723682846D968E6
:1056000005F0AEFE23680A20D96805F03DFE04F0DF
:1056100019F8ADE703F0EDFF04F014F8A8E704F083
:1056200011F8FFF7C3FA00BF70090020340400200E
:10563000021C0108201C0108511C0108821C0108E1
:10564000541C010808B50420FFF7EAF9024B034A8D
:1056500003490360FFF760FE002601085558000863
:10566000EC25010838B505460820FFF7D9F9294689
:10567000044604F09FF8054A05492046FFF74CFE12
:105680002046FFF7E3F9FFF791FA00BFBD96000847
:10569000A82E010838B505460820FFF7C1F92946AC
:1056A000044604F09BF8054A05492046FFF734FEFE
:1056B0002046FFF7CBF9FFF779FA00BFF59600080F
:1056C000C82E01080FB4F0B583B000AF07F1200475
:1056D00054F8046B3046FAF7F3FF00F2072323F087
:1056E0000703ADEB030D6D4600F50071234632460E
:1056F00028467C6000F068F80820FFF791F92946F9
:10570000044604F075F8054A05492046FFF704FEF3
:105710002046FFF79BF9FFF749FA00BF1D970008E5
:10572000E82E0108F0B59DB0064600AF0C46A41B5C
:105730000E496922381DFAF723FF04F1700323F0A4
:105740000703ADEB030D6D466822391D2846FAF7B5
:1057500017FF2246314605F168002C44FAF710FF86
:10576000002384F868302846FFF77CFF8E1C010870
:105770002DE9F04100AF84B06D4605F10C04DFF86F
:10578000448023464FF00A0CB2FBFCF60CFB162EAD
:1057900018F80EE003F801ED9646BEF1090F324607
:1057A000F2D8E41A8C4209D8C4F10C0122462944EB
:1057B000FAF7E6FE2046BD46BDE8F0814FF0FF3423
:1057C000F8E700BFF71C010801392DE9F041074651
:1057D000154600EB010804462A7892B3444516D2D8
:1057E000252A07D16A78732A09D07A2A18D0252A5F
:1057F00000D1013515F8012B04F8012BECE753F823
:10580000042B013A12F8011F41B1444503D121464E
:105810003846FFF787FF04F8011BF3E70235DBE7A3
:10582000AA78752AE6D11E46A8EB040156F8042B87
:105830002046FFF79DFF0028E9DD04440335334689
:10584000CAE72270E01BBDE8F08100000048704705
:10585000021D010810B5034B03600446FFF75EFA12
:10586000204610BD0026010810B50446FFF7F2FFE0
:1058700020460421FFF777F8204610BD7FB50024AD
:105880001023CDE90234036815469E6912686B4601
:10589000CDE90044B0479DF8043003F00603062B21
:1058A00003BF009B2B600120204604B070BD009810
:1058B00090420CBF062001207047000010B5034B3A
:1058C00003600446FFF72DFE204610BD4426010864
:1058D00010B50446FFF7F2FF20460821FFF743F812
:1058E000204610BD2DE9F0411F46DDE90834DDF802
:1058F000188098450646154607D10799FFF716FE0A
:1059000018B165710020BDE8F08139463046FFF7D7
:105910000DFE0028F6D00123C4F800802571A37184
:10592000F0E738B515461C46FFF700FE20B1082306
:10593000E36006232560237138BD2DE9F04105465B
:105940000C4616461F46FFF7F1FD48B9032F07D84E
:1059500023683246294620465B69BDE8F041184776
:10596000BDE8F0814E2809D005D81C3804288CBF2A
:1059700000200120704750380128F8E701207047C7
:10598000D0E905139942B8BF03690246BFBF14208E
:1059900000FB013000230131BABFC0E9013351617E
:1059A00000207047312970B50C4616461D463CD87C
:1059B00028290AD80A2921D804292ED9A1F10903B6
:1059C000012B45D85EBB35462DE0A1F12903082BFC
:1059D0003ED801A252F823F01F5A00081D5A0008B1
:1059E0001B5A0008515A00081B5A00081F5A000889
:1059F0001F5A0008C55900081D5A0008A1F10B02E2
:105A0000D2B201239340234A1A40002ADAD113F478
:105A10007F1F04D1204A1A40D2B1CEB11DB1FFF789
:105A2000AFFF98BB0546284670BD4F2912D83329D1
:105A30000ED9A4F13403DBB201229A40174B134074
:105A4000002BBFD1164B1340002BE6D14E2CE6D0D5
:105A50000025E8E7A1F15203092BE0D801A252F892
:105A600023F000BFC55900081D5A00081D5A000840
:105A70001B5A0008C5590008C55900081F5A0008DC
:105A8000C5590008C5590008C5590008C0E9036593
:105A90000470C7E7FE1F802F010040000711C701F7
:105AA000F82E000A38B50C461546FFF769FF40B1DD
:105AB00000233CB19D4207DDC0E90133C0E9034545
:105AC000037038BD2046FCE71846FAE710B50C46CF
:105AD000FFF756FF10B127230370C46010BD70B5E7
:105AE000C1680B786E2B02BF4B1CC3604B7802461B
:105AF0000CBF0125002500206FF000460A24303B32
:105B0000D9B2092902D905B1404270BDF11AB1FBE1
